{
  "_format": "hh-sol-artifact-1",
  "contractName": "WhisperBox",
  "sourceName": "contracts/WhisperBox.sol",
  "abi": [
    {
      "inputs": [],
      "stateMutability": "nonpayable",
      "type": "constructor"
    },
    {
      "anonymous": false,
      "inputs": [
        {
          "indexed": true,
          "internalType": "uint256",
          "name": "messageId",
          "type": "uint256"
        },
        {
          "indexed": true,
          "internalType": "address",
          "name": "reader",
          "type": "address"
        },
        {
          "indexed": false,
          "internalType": "uint256",
          "name": "timestamp",
          "type": "uint256"
        }
      ],
      "name": "MessageRead",
      "type": "event"
    },
    {
      "anonymous": false,
      "inputs": [
        {
          "indexed": true,
          "internalType": "uint256",
          "name": "messageId",
          "type": "uint256"
        },
        {
          "indexed": true,
          "internalType": "address",
          "name": "recipient",
          "type": "address"
        },
        {
          "indexed": false,
          "internalType": "uint256",
          "name": "timestamp",
          "type": "uint256"
        }
      ],
      "name": "MessageSent",
      "type": "event"
    },
    {
      "anonymous": false,
      "inputs": [
        {
          "indexed": true,
          "internalType": "address",
          "name": "user",
          "type": "address"
        },
        {
          "indexed": false,
          "internalType": "string",
          "name": "username",
          "type": "string"
        },
        {
          "indexed": false,
          "internalType": "uint256",
          "name": "timestamp",
          "type": "uint256"
        }
      ],
      "name": "ProfileCreated",
      "type": "event"
    },
    {
      "inputs": [],
      "name": "createProfile",
      "outputs": [],
      "stateMutability": "nonpayable",
      "type": "function"
    },
    {
      "inputs": [
        {
          "internalType": "string",
          "name": "userId",
          "type": "string"
        }
      ],
      "name": "getAddressFromUserId",
      "outputs": [
        {
          "internalType": "address",
          "name": "",
          "type": "address"
        }
      ],
      "stateMutability": "view",
      "type": "function"
    },
    {
      "inputs": [
        {
          "internalType": "uint256",
          "name": "messageId",
          "type": "uint256"
        }
      ],
      "name": "getEncryptedMessage",
      "outputs": [
        {
          "internalType": "euint128",
          "name": "",
          "type": "bytes32"
        }
      ],
      "stateMutability": "view",
      "type": "function"
    },
    {
      "inputs": [
        {
          "internalType": "uint256",
          "name": "messageId",
          "type": "uint256"
        }
      ],
      "name": "getMessage",
      "outputs": [
        {
          "components": [
            {
              "internalType": "uint256",
              "name": "id",
              "type": "uint256"
            },
            {
              "internalType": "address",
              "name": "recipient",
              "type": "address"
            },
            {
              "internalType": "uint256",
              "name": "timestamp",
              "type": "uint256"
            },
            {
              "internalType": "bool",
              "name": "isRead",
              "type": "bool"
            }
          ],
          "internalType": "struct WhisperBox.Message",
          "name": "",
          "type": "tuple"
        }
      ],
      "stateMutability": "view",
      "type": "function"
    },
    {
      "inputs": [
        {
          "internalType": "uint256",
          "name": "offset",
          "type": "uint256"
        },
        {
          "internalType": "uint256",
          "name": "limit",
          "type": "uint256"
        }
      ],
      "name": "getMessagesPaginated",
      "outputs": [
        {
          "internalType": "uint256[]",
          "name": "",
          "type": "uint256[]"
        }
      ],
      "stateMutability": "view",
      "type": "function"
    },
    {
      "inputs": [],
      "name": "getMyMessages",
      "outputs": [
        {
          "internalType": "uint256[]",
          "name": "",
          "type": "uint256[]"
        }
      ],
      "stateMutability": "view",
      "type": "function"
    },
    {
      "inputs": [
        {
          "internalType": "address",
          "name": "user",
          "type": "address"
        }
      ],
      "name": "getProfile",
      "outputs": [
        {
          "components": [
            {
              "internalType": "address",
              "name": "userAddress",
              "type": "address"
            },
            {
              "internalType": "string",
              "name": "userId",
              "type": "string"
            },
            {
              "internalType": "string",
              "name": "username",
              "type": "string"
            },
            {
              "internalType": "uint256",
              "name": "messageCount",
              "type": "uint256"
            },
            {
              "internalType": "uint256",
              "name": "createdAt",
              "type": "uint256"
            },
            {
              "internalType": "bool",
              "name": "isActive",
              "type": "bool"
            }
          ],
          "internalType": "struct WhisperBox.UserProfile",
          "name": "",
          "type": "tuple"
        }
      ],
      "stateMutability": "view",
      "type": "function"
    },
    {
      "inputs": [
        {
          "internalType": "string",
          "name": "userId",
          "type": "string"
        }
      ],
      "name": "getProfileByUserId",
      "outputs": [
        {
          "components": [
            {
              "internalType": "address",
              "name": "userAddress",
              "type": "address"
            },
            {
              "internalType": "string",
              "name": "userId",
              "type": "string"
            },
            {
              "internalType": "string",
              "name": "username",
              "type": "string"
            },
            {
              "internalType": "uint256",
              "name": "messageCount",
              "type": "uint256"
            },
            {
              "internalType": "uint256",
              "name": "createdAt",
              "type": "uint256"
            },
            {
              "internalType": "bool",
              "name": "isActive",
              "type": "bool"
            }
          ],
          "internalType": "struct WhisperBox.UserProfile",
          "name": "",
          "type": "tuple"
        }
      ],
      "stateMutability": "view",
      "type": "function"
    },
    {
      "inputs": [],
      "name": "getUnreadCount",
      "outputs": [
        {
          "internalType": "uint256",
          "name": "",
          "type": "uint256"
        }
      ],
      "stateMutability": "view",
      "type": "function"
    },
    {
      "inputs": [
        {
          "internalType": "uint256",
          "name": "messageId",
          "type": "uint256"
        }
      ],
      "name": "markAsRead",
      "outputs": [],
      "stateMutability": "nonpayable",
      "type": "function"
    },
    {
      "inputs": [],
      "name": "messageCounter",
      "outputs": [
        {
          "internalType": "uint256",
          "name": "",
          "type": "uint256"
        }
      ],
      "stateMutability": "view",
      "type": "function"
    },
    {
      "inputs": [
        {
          "internalType": "uint256",
          "name": "",
          "type": "uint256"
        }
      ],
      "name": "messages",
      "outputs": [
        {
          "internalType": "uint256",
          "name": "id",
          "type": "uint256"
        },
        {
          "internalType": "address",
          "name": "recipient",
          "type": "address"
        },
        {
          "internalType": "uint256",
          "name": "timestamp",
          "type": "uint256"
        },
        {
          "internalType": "bool",
          "name": "isRead",
          "type": "bool"
        }
      ],
      "stateMutability": "view",
      "type": "function"
    },
    {
      "inputs": [
        {
          "internalType": "address",
          "name": "",
          "type": "address"
        }
      ],
      "name": "profiles",
      "outputs": [
        {
          "internalType": "address",
          "name": "userAddress",
          "type": "address"
        },
        {
          "internalType": "string",
          "name": "userId",
          "type": "string"
        },
        {
          "internalType": "string",
          "name": "username",
          "type": "string"
        },
        {
          "internalType": "uint256",
          "name": "messageCount",
          "type": "uint256"
        },
        {
          "internalType": "uint256",
          "name": "createdAt",
          "type": "uint256"
        },
        {
          "internalType": "bool",
          "name": "isActive",
          "type": "bool"
        }
      ],
      "stateMutability": "view",
      "type": "function"
    },
    {
      "inputs": [],
      "name": "protocolId",
      "outputs": [
        {
          "internalType": "uint256",
          "name": "",
          "type": "uint256"
        }
      ],
      "stateMutability": "pure",
      "type": "function"
    },
    {
      "inputs": [
        {
          "internalType": "uint256",
          "name": "messageId",
          "type": "uint256"
        }
      ],
      "name": "requestMessageAccess",
      "outputs": [],
      "stateMutability": "nonpayable",
      "type": "function"
    },
    {
      "inputs": [
        {
          "internalType": "string",
          "name": "recipientUserId",
          "type": "string"
        },
        {
          "internalType": "externalEuint128",
          "name": "encryptedContent",
          "type": "bytes32"
        },
        {
          "internalType": "bytes",
          "name": "inputProof",
          "type": "bytes"
        }
      ],
      "name": "sendAnonymousMessage",
      "outputs": [
        {
          "internalType": "uint256",
          "name": "",
          "type": "uint256"
        }
      ],
      "stateMutability": "nonpayable",
      "type": "function"
    },
    {
      "inputs": [
        {
          "internalType": "string",
          "name": "",
          "type": "string"
        }
      ],
      "name": "userIdToAddress",
      "outputs": [
        {
          "internalType": "address",
          "name": "",
          "type": "address"
        }
      ],
      "stateMutability": "view",
      "type": "function"
    },
    {
      "inputs": [
        {
          "internalType": "address",
          "name": "",
          "type": "address"
        },
        {
          "internalType": "uint256",
          "name": "",
          "type": "uint256"
        }
      ],
      "name": "userMessages",
      "outputs": [
        {
          "internalType": "uint256",
          "name": "",
          "type": "uint256"
        }
      ],
      "stateMutability": "view",
      "type": "function"
    }
  ],
  "bytecode": "0x60806040523461015f5760006060610015610164565b828152826020820152826040820152015261002e610164565b606073687820221192c5b662b25367f70076a37bc79b6c9182815273848b0066793bcc60346da1f49049357399b8d59580602083015273a02cda4ca3a71d7c46997716f4283aa851c2881291826040820152731364cbbf2cdf5032c47d8226a6f6fbd2afcdacac938491015260018060a01b0319937f9e7b61f58c47dc699ac88507c4f5bb9f121c03808c5676a8078fe583e464970090858254161790557f9e7b61f58c47dc699ac88507c4f5bb9f121c03808c5676a8078fe583e464970190848254161790557f9e7b61f58c47dc699ac88507c4f5bb9f121c03808c5676a8078fe583e464970290838254161790557f9e7b61f58c47dc699ac88507c4f5bb9f121c03808c5676a8078fe583e4649703918254161790556001600555600060065560405161187c908161019a8239f35b600080fd5b60405190608082016001600160401b0381118382101761018357604052565b634e487b7160e01b600052604160045260246000fdfe608080604052600436101561001357600080fd5b600090813560e01c90816254766414610bea575080630d80fefd14610b905780630f53a47014610b085780633999cd4214610a955780634211432e146109de578063529c7588146109c05780635e7339ce1461095a5780636692c09c146108f35780637c100c361461080657806386f79edb1461072a5780639428cda3146106d4578063bbe1562714610631578063c21be6ae146105c8578063da1f12ab146105ab578063e81af7f5146104b0578063edf5666214610187578063f9cc6ab31461011b5763fff57ebb146100e657600080fd5b3461011857604036600319011261011857610114610108602435600435611665565b6040519182918261138a565b0390f35b80fd5b5034610118576020366003190112610118576004358015158061017c575b610142906115c9565b808252600360205261016460018060a01b03600160408520015416331461160e565b815260046020526101793360408320546117bf565b80f35b506005548110610139565b5034610118576060366003190112610118576001600160401b0360043581811161047d576101b990369060040161136c565b916044359082821161011857366023830112156101185781600401359283116101185736602484840101116101185780604051856103216102ca8398516102068160209b8c8097016111d1565b840160018152848460018060a01b039687930301902054169661022a88151561154b565b87865285845261024360ff600560408920015416611506565b600554986102508a6115a4565b6005556102c0604051610262816112b0565b8b815260038c8883018d8152604084019042825260608501928d84528d52838b5260408d20945185558b600186019151166001600160601b0360a01b82541617905551600284015551151591019060ff801983541691151516179055565b6024369201611335565b837f9e7b61f58c47dc699ac88507c4f5bb9f121c03808c5676a8078fe583e464970154169060405195868094819363196d0b9b60e01b835260243560048401523360248401526080604484015260848301906111f4565b6006606483015203925af1918215610472578392610481575b507f9e7b61f58c47dc699ac88507c4f5bb9f121c03808c5676a8078fe583e46497005416803b1561047d57604051630f8e573b60e21b8152600481018390523360248201529083908290604490829084905af180156104725761045d575b506103bb90848352600486528060408420556103b484826117bf565b30906117bf565b81815260028452604081208054906801000000000000000082101561044957916103ef8260039460016040950181556113c6565b815490851b9087821b91600019901b1916179055838152808652200161041581546115a4565b9055817f5d0e140b7cef2ea5088380639c54b5d796f25498bf81fb82f87069a07a8f652b84604051428152a3604051908152f35b634e487b7160e01b83526041600452602483fd5b9161046b6103bb92936112cb565b9190610398565b6040513d85823e3d90fd5b8280fd5b9091508581813d83116104a9575b61049981836112f9565b8101031261047d5751903861033a565b503d61048f565b5034610118576020806003193601126105a7576004356001600160401b03811161047d576005610114939260406104ed60ff94369060040161136c565b946104f66114d3565b508261050a835197888151938492016111d1565b860160018152868460018060a01b0398899303019020541661052d81151561154b565b8082528184526105438686858520015416611506565b81528083522090604051946105578661127f565b82541685526105686001830161142e565b908501526105786002820161142e565b60408501526003810154606085015260048101546080850152015416151560a082015260405191829182611219565b5080fd5b503461011857806003193601126101185760206040516127118152f35b503461011857602036600319011261011857600435906001600160401b0382116101185760206105fb366004850161136c565b8161060f60405192838151938492016111d1565b600190820190815281900382019020546040516001600160a01b039091168152f35b5034610118576020366003190112610118576001600160a01b0390604090826106586111b6565b1681528060205220908154166106706001830161142e565b9161067d6002820161142e565b6003820154916106be60ff6005600484015493015416926106b0604051978897885260c0602089015260c08801906111f4565b9086820360408801526111f4565b9260608501526080840152151560a08301520390f35b5034610118576040366003190112610118576106ee6111b6565b6001600160a01b031681526002602052604081208054602435929083101561011857602061071c84846113c6565b90546040519160031b1c8152f35b5034610118576020806003193601126105a757906080916040600435928060608351610755816112b0565b828152828682015282858201520152831515806107fb575b610776906115c9565b83815260038352818120600101546001600160a01b03949061079b908616331461160e565b81526003835220604051916107af836112b0565b81549384845280600184015416828501908152606060ff600360028701549660408901978852015416950194151585526040519586525116908401525160408301525115156060820152f35b50600554841061076d565b5034610118576020806003193601126105a757600435801515806108e8575b61082e906115c9565b8083526003825261084f60018060a01b03600160408620015416331461160e565b8083526003825260ff6003604085200154166108ac578083526003825260036040842001600160ff198254161790557fe11a056f97f93da0dfd004a97e14a81cec2b745a0241f104df083b4a9291b74b604051924284523393a380f35b60405162461bcd60e51b815260048101839052601460248201527313595cdcd859d948185b1c9958591e481c99585960621b6044820152606490fd5b506005548110610825565b50346101185760203660031901126101185760406020916004358015158061094f575b61091f906115c9565b8082526003845261093f60018060a01b036001858520015416331461160e565b8152600483522054604051908152f35b506005548110610916565b503461011857806003193601126101185733815260206002602052604082209160405180926020855492838152019483526020832092905b8282106109a95761011485610108818903826112f9565b835486529485019460019384019390910190610992565b50346101185780600319360112610118576020600554604051908152f35b5034610118578060031936011261011857338152602090600282526040812090604051808385829554938481520190845285842092845b87828210610a7f57505050610a2c925003836112f9565b80805b8351811015610a7557610a428185611590565b51825260ff60038087526040842001541615610a61575b600101610a2f565b91610a6d6001916115a4565b929050610a59565b8483604051908152f35b8554845260019586019588955093019201610a15565b503461011857602036600319011261011857600435906001600160401b038211610118576020610ac8366004850161136c565b81610adc60405192838151938492016111d1565b600190820190815281900382019020546001600160a01b0316610b0081151561154b565b604051908152f35b5034610118576020366003190112610118576101149060ff60056040610b2c6111b6565b93610b356114d3565b506001600160a01b039485168082526020829052828220840154610b5a908616611506565b8152806020522060405193610b6e8561127f565b8154168452610b7f6001820161142e565b60208501526105786002820161142e565b5034610118576020366003190112610118576040608091600435815260036020522080549060018060a01b036001820154169060ff6003600283015492015416916040519384526020840152604083015215156060820152f35b9050346105a757816003193601126105a7573382528160205260ff60056040842001541661117b5750610c1e6006546115a4565b8060065560405160208101913360601b8352426034830152605482015260548152610c48816112b0565b51902060405190610c58826112de565b6004825260203681840137825b6004811061114757505060405190610c7c826112de565b601082526f181899199a1a9b1b9c1cb0b131b232b360811b602083015280518060011b916002918084046002149015171561113357610cd3610cbd8461131a565b93610ccb60405195866112f9565b80855261131a565b601f1901366020850137845b8151811015610d92576001600160f81b031980610d09610cff84866117ae565b5160fc1c886117ae565b5116908260011b91838304861484151715610d7e57881a610d2a83886117ae565b53610d45600f610d3a85876117ae565b5160f81c16886117ae565b511660018201809211610d6a5790610d6360019392891a91876117ae565b5301610cdf565b634e487b7160e01b88526011600452602488fd5b634e487b7160e01b89526011600452602489fd5b85846040519064757365725f60d81b6020830152610dce6025838351610dbe81848401602088016111d1565b81010360058101855201836112f9565b604051610dda8161127f565b3381526020810190828252836040820152846060820152426080820152600160a082015233855284602052604085209160018060a01b038251166001600160601b0360a01b845416178355518051906001600160401b038211611055578190610e4660018601546113f4565b601f81116110e3575b50602090601f8311600114611074578892611069575b50508160011b916000199060031b1c19161760018301555b60408101518051906001600160401b03821161105557610ea060028501546113f4565b601f8111611011575b50602090601f8311600114610f955760a0610f28969484610f1595602098956005958d92610f8a575b50508160011b916000199060031b1c19161760028501555b60608101516003850155608081015160048501550151151591019060ff801983541691151516179055565b81604051938285809451938492016111d1565b81016001815203019020336001600160601b0360a01b8254161790557f25dbccf9f713a2b16ed5d635585b4778d0d7e66b7b631871e668a694131e5fad610f7a604051926040845260408401906111f4565b914260208201528033930390a280f35b015190508c80610ed2565b906002850188526020882091885b601f1985168110610ff95750610f2896946001856020989560059560a095610f1599601f19811610610fe0575b505050811b016002850155610eea565b015160001960f88460031b161c191690558c8080610fd0565b91926020600181928685015181550194019201610fa3565b60028501885260208820601f840160051c81016020851061104e575b601f830160051c82018110611043575050610ea9565b89815560010161102d565b508061102d565b634e487b7160e01b87526041600452602487fd5b015190508780610e65565b9250600185018852602088209088935b601f19841685106110c8576001945083601f198116106110af575b505050811b016001830155610e7d565b015160001960f88460031b161c1916905587808061109f565b81810151835560209485019460019093019290910190611084565b90915060018501885260208820601f840160051c81016020851061112c575b90849392915b601f830160051c8201811061111e575050610e4f565b8a8155859450600101611108565b5080611102565b634e487b7160e01b85526011600452602485fd5b60208110156111675780826001921a61116082866117ae565b5301610c65565b634e487b7160e01b84526032600452602484fd5b62461bcd60e51b815260206004820152601660248201527550726f66696c6520616c72656164792065786973747360501b6044820152606490fd5b600435906001600160a01b03821682036111cc57565b600080fd5b60005b8381106111e45750506000910152565b81810151838201526020016111d4565b9060209161120d815180928185528580860191016111d1565b601f01601f1916010190565b6020815260018060a01b03825116602082015260c060a061126161124b602086015184604087015260e08601906111f4565b6040860151858203601f190160608701526111f4565b93606081015160808501526080810151828501520151151591015290565b60c081019081106001600160401b0382111761129a57604052565b634e487b7160e01b600052604160045260246000fd5b608081019081106001600160401b0382111761129a57604052565b6001600160401b03811161129a57604052565b604081019081106001600160401b0382111761129a57604052565b90601f801991011681019081106001600160401b0382111761129a57604052565b6001600160401b03811161129a57601f01601f191660200190565b9291926113418261131a565b9161134f60405193846112f9565b8294818452818301116111cc578281602093846000960137010152565b9080601f830112156111cc5781602061138793359101611335565b90565b602090602060408183019282815285518094520193019160005b8281106113b2575050505090565b8351855293810193928101926001016113a4565b80548210156113de5760005260206000200190600090565b634e487b7160e01b600052603260045260246000fd5b90600182811c92168015611424575b602083101461140e57565b634e487b7160e01b600052602260045260246000fd5b91607f1691611403565b90604051918260008254611441816113f4565b908184526020946001916001811690816000146114b15750600114611472575b505050611470925003836112f9565b565b600090815285812095935091905b8183106114995750506114709350820101388080611461565b85548884018501529485019487945091830191611480565b9250505061147094925060ff191682840152151560051b820101388080611461565b604051906114e08261127f565b600060a08382815260606020820152606060408201528260608201528260808201520152565b1561150d57565b60405162461bcd60e51b8152602060048201526016602482015275141c9bd99a5b1948191bd95cc81b9bdd08195e1a5cdd60521b6044820152606490fd5b1561155257565b60405162461bcd60e51b8152602060048201526016602482015275155cd95c88125108191bd95cc81b9bdd08195e1a5cdd60521b6044820152606490fd5b80518210156113de5760209160051b010190565b60001981146115b35760010190565b634e487b7160e01b600052601160045260246000fd5b156115d057565b60405162461bcd60e51b815260206004820152601660248201527513595cdcd859d948191bd95cc81b9bdd08195e1a5cdd60521b6044820152606490fd5b1561161557565b60405162461bcd60e51b8152602060048201526011602482015270139bdd081d1a19481c9958da5c1a595b9d607a1b6044820152606490fd5b6001600160401b03811161129a5760051b60200190565b6000338152602092600284526040822090604051808387829554938481520190865287862092865b89828210611798575050506116a4925003836112f9565b815184101561175c5781519084820391821161174857808210156117405750915b6116ce8361164e565b946116dc60405196876112f9565b838652601f196116eb8561164e565b01903690870137805b83811061170357505050505090565b80850180861161172c579061171a60019285611590565b516117258289611590565b52016116f4565b634e487b7160e01b83526011600452602483fd5b9050916116c5565b634e487b7160e01b84526011600452602484fd5b505090506040519182018281106001600160401b038211176117845760405280825236813790565b634e487b7160e01b82526041600452602482fd5b855484526001958601958895509301920161168d565b9081518110156113de570160200190565b7f9e7b61f58c47dc699ac88507c4f5bb9f121c03808c5676a8078fe583e4649700546001600160a01b031691823b156111cc57604051635ca4b5b160e11b815260048101929092526001600160a01b03166024820152906000908290604490829084905af1801561183a576118315750565b611470906112cb565b6040513d6000823e3d90fdfea2646970667358221220c8fb287b3f136c55ee62d2071eab865434fb2f479d693477108ec0312f7553da64736f6c63430008180033",
  "linkReferences": {},
  "deployedLinkReferences": {}
}