{
  "_format": "hh-sol-artifact-1",
  "contractName": "AnonAsk",
  "sourceName": "contracts/AnonAsk.sol",
  "abi": [
    {
      "anonymous": false,
      "inputs": [
        {
          "indexed": true,
          "internalType": "uint256",
          "name": "questionId",
          "type": "uint256"
        },
        {
          "indexed": true,
          "internalType": "uint256",
          "name": "sessionId",
          "type": "uint256"
        },
        {
          "indexed": false,
          "internalType": "string",
          "name": "answer",
          "type": "string"
        }
      ],
      "name": "QuestionAnswered",
      "type": "event"
    },
    {
      "anonymous": false,
      "inputs": [
        {
          "indexed": true,
          "internalType": "uint256",
          "name": "questionId",
          "type": "uint256"
        }
      ],
      "name": "QuestionApproved",
      "type": "event"
    },
    {
      "anonymous": false,
      "inputs": [
        {
          "indexed": true,
          "internalType": "uint256",
          "name": "questionId",
          "type": "uint256"
        },
        {
          "indexed": true,
          "internalType": "uint256",
          "name": "sessionId",
          "type": "uint256"
        },
        {
          "indexed": false,
          "internalType": "uint256",
          "name": "timestamp",
          "type": "uint256"
        }
      ],
      "name": "QuestionSubmitted",
      "type": "event"
    },
    {
      "anonymous": false,
      "inputs": [
        {
          "indexed": true,
          "internalType": "uint256",
          "name": "questionId",
          "type": "uint256"
        },
        {
          "indexed": false,
          "internalType": "uint256",
          "name": "newUpvoteCount",
          "type": "uint256"
        }
      ],
      "name": "QuestionUpvoted",
      "type": "event"
    },
    {
      "anonymous": false,
      "inputs": [
        {
          "indexed": true,
          "internalType": "uint256",
          "name": "sessionId",
          "type": "uint256"
        }
      ],
      "name": "SessionClosed",
      "type": "event"
    },
    {
      "anonymous": false,
      "inputs": [
        {
          "indexed": true,
          "internalType": "uint256",
          "name": "sessionId",
          "type": "uint256"
        },
        {
          "indexed": true,
          "internalType": "address",
          "name": "host",
          "type": "address"
        },
        {
          "indexed": false,
          "internalType": "string",
          "name": "topic",
          "type": "string"
        },
        {
          "indexed": false,
          "internalType": "uint256",
          "name": "expiresAt",
          "type": "uint256"
        }
      ],
      "name": "SessionCreated",
      "type": "event"
    },
    {
      "inputs": [
        {
          "internalType": "uint256",
          "name": "questionId",
          "type": "uint256"
        },
        {
          "internalType": "string",
          "name": "answer",
          "type": "string"
        }
      ],
      "name": "answerQuestion",
      "outputs": [],
      "stateMutability": "nonpayable",
      "type": "function"
    },
    {
      "inputs": [
        {
          "internalType": "uint256",
          "name": "questionId",
          "type": "uint256"
        }
      ],
      "name": "approveQuestion",
      "outputs": [],
      "stateMutability": "nonpayable",
      "type": "function"
    },
    {
      "inputs": [
        {
          "internalType": "uint256",
          "name": "sessionId",
          "type": "uint256"
        }
      ],
      "name": "closeSession",
      "outputs": [],
      "stateMutability": "nonpayable",
      "type": "function"
    },
    {
      "inputs": [
        {
          "internalType": "string",
          "name": "topic",
          "type": "string"
        },
        {
          "internalType": "string",
          "name": "description",
          "type": "string"
        },
        {
          "internalType": "uint256",
          "name": "duration",
          "type": "uint256"
        }
      ],
      "name": "createSession",
      "outputs": [
        {
          "internalType": "uint256",
          "name": "",
          "type": "uint256"
        }
      ],
      "stateMutability": "nonpayable",
      "type": "function"
    },
    {
      "inputs": [],
      "name": "getActiveSessionsCount",
      "outputs": [
        {
          "internalType": "uint256",
          "name": "",
          "type": "uint256"
        }
      ],
      "stateMutability": "view",
      "type": "function"
    },
    {
      "inputs": [
        {
          "internalType": "uint256",
          "name": "questionId",
          "type": "uint256"
        }
      ],
      "name": "getEncryptedQuestion",
      "outputs": [
        {
          "internalType": "euint128",
          "name": "",
          "type": "bytes32"
        }
      ],
      "stateMutability": "view",
      "type": "function"
    },
    {
      "inputs": [
        {
          "internalType": "address",
          "name": "host",
          "type": "address"
        }
      ],
      "name": "getHostSessions",
      "outputs": [
        {
          "internalType": "uint256[]",
          "name": "",
          "type": "uint256[]"
        }
      ],
      "stateMutability": "view",
      "type": "function"
    },
    {
      "inputs": [
        {
          "internalType": "uint256",
          "name": "questionId",
          "type": "uint256"
        }
      ],
      "name": "getQuestion",
      "outputs": [
        {
          "components": [
            {
              "internalType": "uint256",
              "name": "id",
              "type": "uint256"
            },
            {
              "internalType": "uint256",
              "name": "sessionId",
              "type": "uint256"
            },
            {
              "internalType": "uint256",
              "name": "timestamp",
              "type": "uint256"
            },
            {
              "internalType": "bool",
              "name": "isAnswered",
              "type": "bool"
            },
            {
              "internalType": "bool",
              "name": "isApproved",
              "type": "bool"
            },
            {
              "internalType": "string",
              "name": "answer",
              "type": "string"
            },
            {
              "internalType": "uint256",
              "name": "upvotes",
              "type": "uint256"
            }
          ],
          "internalType": "struct AnonAsk.Question",
          "name": "",
          "type": "tuple"
        }
      ],
      "stateMutability": "view",
      "type": "function"
    },
    {
      "inputs": [
        {
          "internalType": "uint256",
          "name": "sessionId",
          "type": "uint256"
        }
      ],
      "name": "getSession",
      "outputs": [
        {
          "components": [
            {
              "internalType": "uint256",
              "name": "id",
              "type": "uint256"
            },
            {
              "internalType": "address",
              "name": "host",
              "type": "address"
            },
            {
              "internalType": "string",
              "name": "topic",
              "type": "string"
            },
            {
              "internalType": "string",
              "name": "description",
              "type": "string"
            },
            {
              "internalType": "uint256",
              "name": "createdAt",
              "type": "uint256"
            },
            {
              "internalType": "uint256",
              "name": "expiresAt",
              "type": "uint256"
            },
            {
              "internalType": "bool",
              "name": "isActive",
              "type": "bool"
            },
            {
              "internalType": "uint256",
              "name": "questionCount",
              "type": "uint256"
            },
            {
              "internalType": "uint256",
              "name": "answeredCount",
              "type": "uint256"
            }
          ],
          "internalType": "struct AnonAsk.Session",
          "name": "",
          "type": "tuple"
        }
      ],
      "stateMutability": "view",
      "type": "function"
    },
    {
      "inputs": [
        {
          "internalType": "uint256",
          "name": "sessionId",
          "type": "uint256"
        }
      ],
      "name": "getSessionQuestions",
      "outputs": [
        {
          "internalType": "uint256[]",
          "name": "",
          "type": "uint256[]"
        }
      ],
      "stateMutability": "view",
      "type": "function"
    },
    {
      "inputs": [
        {
          "internalType": "uint256",
          "name": "",
          "type": "uint256"
        },
        {
          "internalType": "address",
          "name": "",
          "type": "address"
        }
      ],
      "name": "hasUpvoted",
      "outputs": [
        {
          "internalType": "bool",
          "name": "",
          "type": "bool"
        }
      ],
      "stateMutability": "view",
      "type": "function"
    },
    {
      "inputs": [
        {
          "internalType": "address",
          "name": "",
          "type": "address"
        },
        {
          "internalType": "uint256",
          "name": "",
          "type": "uint256"
        }
      ],
      "name": "hostSessions",
      "outputs": [
        {
          "internalType": "uint256",
          "name": "",
          "type": "uint256"
        }
      ],
      "stateMutability": "view",
      "type": "function"
    },
    {
      "inputs": [
        {
          "internalType": "uint256",
          "name": "sessionId",
          "type": "uint256"
        }
      ],
      "name": "isSessionExpired",
      "outputs": [
        {
          "internalType": "bool",
          "name": "",
          "type": "bool"
        }
      ],
      "stateMutability": "view",
      "type": "function"
    },
    {
      "inputs": [],
      "name": "protocolId",
      "outputs": [
        {
          "internalType": "uint256",
          "name": "",
          "type": "uint256"
        }
      ],
      "stateMutability": "pure",
      "type": "function"
    },
    {
      "inputs": [],
      "name": "questionCount",
      "outputs": [
        {
          "internalType": "uint256",
          "name": "",
          "type": "uint256"
        }
      ],
      "stateMutability": "view",
      "type": "function"
    },
    {
      "inputs": [
        {
          "internalType": "uint256",
          "name": "",
          "type": "uint256"
        }
      ],
      "name": "questions",
      "outputs": [
        {
          "internalType": "uint256",
          "name": "id",
          "type": "uint256"
        },
        {
          "internalType": "uint256",
          "name": "sessionId",
          "type": "uint256"
        },
        {
          "internalType": "uint256",
          "name": "timestamp",
          "type": "uint256"
        },
        {
          "internalType": "bool",
          "name": "isAnswered",
          "type": "bool"
        },
        {
          "internalType": "bool",
          "name": "isApproved",
          "type": "bool"
        },
        {
          "internalType": "string",
          "name": "answer",
          "type": "string"
        },
        {
          "internalType": "uint256",
          "name": "upvotes",
          "type": "uint256"
        }
      ],
      "stateMutability": "view",
      "type": "function"
    },
    {
      "inputs": [
        {
          "internalType": "uint256",
          "name": "questionId",
          "type": "uint256"
        }
      ],
      "name": "requestQuestionAccess",
      "outputs": [],
      "stateMutability": "nonpayable",
      "type": "function"
    },
    {
      "inputs": [],
      "name": "sessionCount",
      "outputs": [
        {
          "internalType": "uint256",
          "name": "",
          "type": "uint256"
        }
      ],
      "stateMutability": "view",
      "type": "function"
    },
    {
      "inputs": [
        {
          "internalType": "uint256",
          "name": "",
          "type": "uint256"
        },
        {
          "internalType": "uint256",
          "name": "",
          "type": "uint256"
        }
      ],
      "name": "sessionQuestions",
      "outputs": [
        {
          "internalType": "uint256",
          "name": "",
          "type": "uint256"
        }
      ],
      "stateMutability": "view",
      "type": "function"
    },
    {
      "inputs": [
        {
          "internalType": "uint256",
          "name": "",
          "type": "uint256"
        }
      ],
      "name": "sessions",
      "outputs": [
        {
          "internalType": "uint256",
          "name": "id",
          "type": "uint256"
        },
        {
          "internalType": "address",
          "name": "host",
          "type": "address"
        },
        {
          "internalType": "string",
          "name": "topic",
          "type": "string"
        },
        {
          "internalType": "string",
          "name": "description",
          "type": "string"
        },
        {
          "internalType": "uint256",
          "name": "createdAt",
          "type": "uint256"
        },
        {
          "internalType": "uint256",
          "name": "expiresAt",
          "type": "uint256"
        },
        {
          "internalType": "bool",
          "name": "isActive",
          "type": "bool"
        },
        {
          "internalType": "uint256",
          "name": "questionCount",
          "type": "uint256"
        },
        {
          "internalType": "uint256",
          "name": "answeredCount",
          "type": "uint256"
        }
      ],
      "stateMutability": "view",
      "type": "function"
    },
    {
      "inputs": [
        {
          "internalType": "uint256",
          "name": "sessionId",
          "type": "uint256"
        },
        {
          "internalType": "externalEuint128",
          "name": "encryptedQuestion",
          "type": "bytes32"
        },
        {
          "internalType": "bytes",
          "name": "inputProof",
          "type": "bytes"
        }
      ],
      "name": "submitQuestion",
      "outputs": [
        {
          "internalType": "uint256",
          "name": "",
          "type": "uint256"
        }
      ],
      "stateMutability": "nonpayable",
      "type": "function"
    },
    {
      "inputs": [
        {
          "internalType": "uint256",
          "name": "questionId",
          "type": "uint256"
        }
      ],
      "name": "upvoteQuestion",
      "outputs": [],
      "stateMutability": "nonpayable",
      "type": "function"
    }
  ],
  "bytecode": "0x608060405234610155576000606061001561015a565b828152826020820152826040820152015261002e61015a565b606073687820221192c5b662b25367f70076a37bc79b6c9182815273848b0066793bcc60346da1f49049357399b8d59580602083015273a02cda4ca3a71d7c46997716f4283aa851c2881291826040820152731364cbbf2cdf5032c47d8226a6f6fbd2afcdacac938491015260018060a01b0319937f9e7b61f58c47dc699ac88507c4f5bb9f121c03808c5676a8078fe583e464970090858254161790557f9e7b61f58c47dc699ac88507c4f5bb9f121c03808c5676a8078fe583e464970190848254161790557f9e7b61f58c47dc699ac88507c4f5bb9f121c03808c5676a8078fe583e464970290838254161790557f9e7b61f58c47dc699ac88507c4f5bb9f121c03808c5676a8078fe583e464970391825416179055604051611caf90816101908239f35b600080fd5b60405190608082016001600160401b0381118382101761017957604052565b634e487b7160e01b600052604160045260246000fdfe6080604052600436101561001257600080fd5b6000803560e01c8063119131e11461180d5780631468aa2c146117ef57806331b1b9781461176357806338be42451461171a578063402ff0db146115a1578063447e52a0146112e05780634a9a095d146112655780636dce14fa1461117057806373cd83361461115257806373fceeda146110cc57806383c4b7a3146110105780638943aa0514610f93578063a24d220314610aef578063a3bfdf4714610a09578063a52c8658146109bc578063bbd2dea714610966578063da1f12ab14610949578063db88176f14610824578063e11041c314610729578063e1506c02146106b5578063e960b5251461062f5763e9774b471461010f57600080fd5b3461062c57606036600319011261062c576044356001600160401b0381116105965736602382011215610596578060040135906001600160401b0382116105685736602483830101116105685760043515158061061e575b61017090611acd565b60043583528260205260ff600660408520015416156105e45760043583528260205260056040842001544210156105ad576101bd916101b0600754611b93565b6007556024369201611a12565b9080602061022360018060a01b0394857f9e7b61f58c47dc699ac88507c4f5bb9f121c03808c5676a8078fe583e464970154169060405194858094819363196d0b9b60e01b835260243560048401523360248401526080604484015260848301906119a4565b6006606483015203925af19081156105a257829161056c575b50827f9e7b61f58c47dc699ac88507c4f5bb9f121c03808c5676a8078fe583e46497005416803b1561056857604051630f8e573b60e21b8152600481018390523360248201529083908290604490829084905af1801561055d5761054a575b506102d39192600754845260026020528160408520556102bb3083611bf2565b60043584528360205260016040852001541690611bf2565b600754604051906102e3826118b0565b80825260043560208301524260408301528260608301528260808301526040518060208101106001600160401b03602083011117610534576020810160405283815260a0830190815260c08301918483528452600160205260408420928051845560208101516001850155604081015160028501556080600385019161037b60608201511515849060ff801983541691151516179055565b0151815461ff00191690151560081b61ff001617905551805160048401916001600160401b038211610520576103b1835461185a565b601f81116104da575b50602090601f831160011461046c5792826005938896936040989660079a92610461575b50508160011b916000199060031b1c19161790555b519101556004358152600360205261040f828220845490611bb8565b60043581528060205220016104248154611b93565b90556020600754604051428152817fd90a8002ea984e1b4c565bec163e1c4c97e4b59644cba3aa9976bca4c38ad9538460043593a3604051908152f35b0151905038806103de565b838752602087209190601f198416885b8181106104c25750936007989693604098969360019383600598106104a9575b505050811b0190556103f3565b015160001960f88460031b161c1916905538808061049c565b9293602060018192878601518155019501930161047c565b83875260208720601f840160051c81019160208510610516575b601f0160051c01905b81811061050a57506103ba565b600081556001016104fd565b90915081906104f4565b634e487b7160e01b86526041600452602486fd5b634e487b7160e01b600052604160045260246000fd5b916105576102d3936118cb565b9161029b565b6040513d85823e3d90fd5b8280fd5b90506020813d60201161059a575b81610587602093836118de565b8101031261059657513861023c565b5080fd5b3d915061057a565b6040513d84823e3d90fd5b60405162461bcd60e51b815260206004820152600f60248201526e14d95cdcda5bdb88195e1c1a5c9959608a1b6044820152606490fd5b60405162461bcd60e51b815260206004820152601260248201527153657373696f6e206e6f742061637469766560701b6044820152606490fd5b506006546004351115610167565b80fd5b503461062c57602080600319360112610596576001600160a01b03610652611ab7565b1682526004602052604082209160405180926020855492838152019483526020832092905b82821061069e5761069a8561068e818903826118de565b60405191829182611a7b565b0390f35b835486529485019460019384019390910190610677565b503461062c57602036600319011261062c5760406020916004358015158061071d575b6106e190611b12565b8082526001845260018383200154825281845261070d60018060a01b0360018585200154163314611b54565b8152600283522054604051908152f35b506007548111156106d8565b503461062c57602080600319360112610596576004359081151580610818575b61075290611b12565b8183526005815260408320338452815260ff6040842054166107e2577f923a7629c9bc99748bd38821bdfe1df3a6c8b84af988ad92e46c4d24ea796c469082845260018152600560408520016107a88154611b93565b90558284526005815260408420338552815260408420600160ff19825416179055828452600181526005604085200154604051908152a280f35b6064906040519062461bcd60e51b82526004820152600f60248201526e105b1c9958591e481d5c1d9bdd1959608a1b6044820152fd5b50600754821115610749565b503461062c576020908160031936011261062c576040906004358160c0845161084c816118b0565b82815282878201528286820152826060820152826080820152606060a082015201528015158061093d575b61088090611b12565b8152600183522060405190610894826118b0565b80548252610932600182015491848401928352600281015460408501908152600382015490606086019060ff83161515825260ff608088019360081c161515835260056108e3600486016118ff565b9460a0890195865201549560c08801968752604051988998818a525190890152516040880152516060870152511515608086015251151560a08501525160e060c08501526101008401906119a4565b905160e08301520390f35b50600754811115610877565b503461062c578060031936011261062c5760206040516127118152f35b503461062c57604036600319011261062c57610980611ab7565b6001600160a01b031681526004602052604081208054602435929083101561062c5760206109ae84846119e4565b90546040519160031b1c8152f35b503461062c57604036600319011261062c576024356001600160a01b0381169081900361059657604060209260ff9260043582526005855282822090825284522054166040519015158152f35b503461062c57602036600319011261062c5760043580151580610ae3575b610a3090611acd565b80825281602052610a5160018060a01b036001604085200154163314611b54565b8082528160205260ff60066040842001541615610aa557808252816020526006604083200160ff1981541690557f737ea773789756155ce4ec81b73f88f21c918501c8bbb06721a6c6c46beb11c28280a280f35b60405162461bcd60e51b815260206004820152601660248201527514d95cdcda5bdb88185b1c9958591e4818db1bdcd95960521b6044820152606490fd5b50600654811115610a27565b503461062c57606036600319011261062c576004356001600160401b03811161059657610b20903690600401611a5d565b906024356001600160401b03811161059657610b40903690600401611a5d565b9160443590805115610f56578115610f1157610b5d600654611b93565b806006558242014211610efd5760405194610b7786611894565b818652336020870152826040870152606086015242608086015282420160a0860152600160c08601528360e08601528361010086015283528260205260408320845181556001810160018060a01b036020870151166bffffffffffffffffffffffff60a01b82541617905560408501518051906001600160401b038211610520578190610c07600285015461185a565b601f8111610ead575b50602090601f8311600114610e43578792610e38575b50508160011b916000199060031b1c19161760028201555b60608501519485516001600160401b03811161052057610c61600384015461185a565b96601f8811610df4575b602097508790601f8311600114610d5b57610100604094848a95610d2098956008957faca18f9e4fe63a56a1135f166e5be85011c442d3d7010f57f96e87f47e6258029d92610d50575b50508160011b916000199060031b1c19161760038501555b6080810151600485015560a08101516005850155610d0060c08201511515600686019060ff801983541691151516179055565b60e081015160078501550151910155338152600487522060065490611bb8565b600654928391610d3b604051916040835260408301906119a4565b934201868201528033940390a3604051908152f35b015190503880610cb5565b9060038501885288882091885b601f1985168110610ddd5750604094600185610d209895600895610100957faca18f9e4fe63a56a1135f166e5be85011c442d3d7010f57f96e87f47e6258029e99601f19811610610dc4575b505050811b016003850155610ccd565b015160001960f88460031b161c19169055388080610db4565b91928a600181928685015181550194019201610d68565b60038401875260208720601f830160051c810160208410610e31575b601f8a0160051c82018110610e26575050610c6b565b888155600101610e10565b5080610e10565b015190503880610c26565b600285018852602088209250601f198416885b818110610e955750908460019594939210610e7c575b505050811b016002820155610c3e565b015160001960f88460031b161c19169055388080610e6c565b92936020600181928786015181550195019301610e56565b90915060028401875260208720601f840160051c810160208510610ef6575b90849392915b601f830160051c82018110610ee8575050610c10565b898155859450600101610ed2565b5080610ecc565b634e487b7160e01b84526011600452602484fd5b60405162461bcd60e51b815260206004820152601960248201527f4475726174696f6e206d75737420626520706f736974697665000000000000006044820152606490fd5b60405162461bcd60e51b8152602060048201526015602482015274546f7069632063616e6e6f7420626520656d70747960581b6044820152606490fd5b503461062c578060031936011261062c5760068054908260015b83811115610fc057602085604051908152f35b808252816020526040822060ff84820154169081611002575b50610fed575b610fe890611b93565b610fad565b93610ffa610fe891611b93565b949050610fdf565b600591500154421038610fd9565b503461062c57602036600319011261062c576040906004358152806020522080549060018060a01b036001820154169061104c600282016118ff565b611058600383016118ff565b9160048101549260058201546110ab60ff6006850154169261109d60086007870154960154966040519a8b9a610120918c5260208c01528060408c01528a01906119a4565b9088820360608a01526119a4565b94608087015260a0860152151560c085015260e08401526101008301520390f35b503461062c576020806003193601126105965760043580151580611146575b6110f490611acd565b82526003602052604082209160405180926020855492838152019483526020832092905b82821061112f5761069a8561068e818903826118de565b835486529485019460019384019390910190611118565b506006548111156110eb565b503461062c578060031936011261062c576020600654604051908152f35b503461062c57602080600319360112610596576004359081151580611259575b61119990611b12565b81835260018152600160408420015483528281526111c760018060a01b036001604086200154163314611b54565b8183526001815260ff600360408520015460081c16611222578183526001905260408220600301805461ff0019166101001790557f06b49846d38a6fbe5737aaea47ce955ef6b44cb6e638896af4821bd5639332a48280a280f35b6064906040519062461bcd60e51b82526004820152601060248201526f105b1c9958591e48185c1c1c9bdd995960821b6044820152fd5b50600754821115611190565b503461062c57602036600319011261062c57600435801515806112d4575b61128c90611b12565b808252600160205260016040832001548252816020526112bc60018060a01b036001604085200154163314611b54565b815260026020526112d1336040832054611bf2565b80f35b50600754811115611283565b503461062c57604036600319011261062c576001600160401b039060043560243583811161056857611316903690600401611a5d565b9080151580611595575b61132990611b12565b8083526001916020838152836040862001549384865285825261135b60018060a01b0382604089200154163314611b54565b83865280825260ff60036040882001541661155d5782511561151f5783865280825260046040872001835197881161150b57611397815461185a565b601f81116114c5575b5082601f891160011461144557978088997ff09ba1842b036646fba1fb43d49e9102f605a05eb9629b2bc88c790ddbe47fab9798999161143a575b50600019600383901b1c191690831b1790555b84875281526003604087200161010161ffff198254161790558486528581526008604087200161141e8154611b93565b90556114346040519282849384528301906119a4565b0390a380f35b9050850151386113db565b81885283882090601f198a16895b8181106114b05750918a917ff09ba1842b036646fba1fb43d49e9102f605a05eb9629b2bc88c790ddbe47fab98999a9b869410611497575b5050811b0190556113ee565b87015160001960f88460031b161c19169055388061148b565b87830151845592850192918601918601611453565b818852838820601f8a0160051c810191858b10611501575b601f0160051c019083905b8281106114f65750506113a0565b8981550183906114e8565b90915081906114dd565b634e487b7160e01b87526041600452602487fd5b60405162461bcd60e51b8152600481018390526016602482015275416e737765722063616e6e6f7420626520656d70747960501b6044820152606490fd5b60405162461bcd60e51b815260048101839052601060248201526f105b1c9958591e48185b9cddd95c995960821b6044820152606490fd5b50600754811115611320565b503461062c576020806003193601126105965760408051926004356115c585611894565b81855281848601526060838601526060808601528160808601528160a08601528160c08601528160e086015281610100809601528015158061170e575b61160b90611acd565b8152808352206040519261161e84611894565b8154845260018201546001600160a01b03908116848601908152909185611647600286016118ff565b946040820195865261165b600382016118ff565b94606083019586526116eb6004830154976080850198895260058401549260a08601938452600860ff6006870154169560c08801961515875260e060078201549801978852015497878d019889528b6040519d8e9d8e5251908d0152511660408b015251966116d8610120988960608d01526101408c01906119a4565b90518a8203601f190160808c01526119a4565b965160a08901525160c088015251151560e0870152519085015251908301520390f35b50600654811115611602565b503461062c57604036600319011261062c5760243590600435815260036020526040812090815483101561062c57602061175484846119e4565b90549060031b1c604051908152f35b503461062c57602036600319011261062c57604090600435815260016020522080546001820154916117e560028201549160ff600382015460056117a9600485016118ff565b930154946040519788978852602088015260408701528181161515606087015260081c161515608085015260e060a085015260e08401906119a4565b9060c08301520390f35b503461062c578060031936011261062c576020600754604051908152f35b503461062c57602036600319011261062c57600560406020926004358015158061184e575b61183b90611acd565b8152808452200154421015604051908152f35b50600654811115611832565b90600182811c9216801561188a575b602083101461187457565b634e487b7160e01b600052602260045260246000fd5b91607f1691611869565b61012081019081106001600160401b0382111761053457604052565b60e081019081106001600160401b0382111761053457604052565b6001600160401b03811161053457604052565b90601f801991011681019081106001600160401b0382111761053457604052565b906040519182600082546119128161185a565b908184526020946001916001811690816000146119825750600114611943575b505050611941925003836118de565b565b600090815285812095935091905b81831061196a5750506119419350820101388080611932565b85548884018501529485019487945091830191611951565b9250505061194194925060ff191682840152151560051b820101388080611932565b919082519283825260005b8481106119d0575050826000602080949584010152601f8019910116010190565b6020818301810151848301820152016119af565b80548210156119fc5760005260206000200190600090565b634e487b7160e01b600052603260045260246000fd5b9291926001600160401b0382116105345760405191611a3b601f8201601f1916602001846118de565b829481845281830111611a58578281602093846000960137010152565b600080fd5b9080601f83011215611a5857816020611a7893359101611a12565b90565b602090602060408183019282815285518094520193019160005b828110611aa3575050505090565b835185529381019392810192600101611a95565b600435906001600160a01b0382168203611a5857565b15611ad457565b60405162461bcd60e51b815260206004820152601660248201527514d95cdcda5bdb88191bd95cc81b9bdd08195e1a5cdd60521b6044820152606490fd5b15611b1957565b60405162461bcd60e51b8152602060048201526013602482015272125b9d985b1a59081c5d595cdd1a5bdb881251606a1b6044820152606490fd5b15611b5b57565b60405162461bcd60e51b815260206004820152601060248201526f139bdd081cd95cdcda5bdb881a1bdcdd60821b6044820152606490fd5b6000198114611ba25760010190565b634e487b7160e01b600052601160045260246000fd5b80546801000000000000000081101561053457611bda916001820181556119e4565b819291549060031b91821b91600019901b1916179055565b7f9e7b61f58c47dc699ac88507c4f5bb9f121c03808c5676a8078fe583e4649700546001600160a01b031691823b15611a5857604051635ca4b5b160e11b815260048101929092526001600160a01b03166024820152906000908290604490829084905af18015611c6d57611c645750565b611941906118cb565b6040513d6000823e3d90fdfea26469706673582212201aac2a1e4545950916a3eadf3750581bad2a1718e624ed17e2b3888779fe7c1a64736f6c63430008180033",
  "linkReferences": {},
  "deployedLinkReferences": {}
}