{
  "_format": "hh-sol-artifact-1",
  "contractName": "PrivateQA",
  "sourceName": "contracts/PrivateQA.sol",
  "abi": [
    {
      "anonymous": false,
      "inputs": [
        {
          "indexed": true,
          "internalType": "uint256",
          "name": "questionId",
          "type": "uint256"
        },
        {
          "indexed": true,
          "internalType": "uint256",
          "name": "sessionId",
          "type": "uint256"
        }
      ],
      "name": "QuestionAnswered",
      "type": "event"
    },
    {
      "anonymous": false,
      "inputs": [
        {
          "indexed": true,
          "internalType": "uint256",
          "name": "questionId",
          "type": "uint256"
        },
        {
          "indexed": true,
          "internalType": "uint256",
          "name": "sessionId",
          "type": "uint256"
        },
        {
          "indexed": true,
          "internalType": "address",
          "name": "asker",
          "type": "address"
        },
        {
          "indexed": false,
          "internalType": "uint256",
          "name": "timestamp",
          "type": "uint256"
        }
      ],
      "name": "QuestionSubmitted",
      "type": "event"
    },
    {
      "anonymous": false,
      "inputs": [
        {
          "indexed": true,
          "internalType": "uint256",
          "name": "sessionId",
          "type": "uint256"
        }
      ],
      "name": "SessionClosed",
      "type": "event"
    },
    {
      "anonymous": false,
      "inputs": [
        {
          "indexed": true,
          "internalType": "uint256",
          "name": "sessionId",
          "type": "uint256"
        },
        {
          "indexed": true,
          "internalType": "address",
          "name": "host",
          "type": "address"
        },
        {
          "indexed": false,
          "internalType": "string",
          "name": "topic",
          "type": "string"
        },
        {
          "indexed": false,
          "internalType": "uint256",
          "name": "expiresAt",
          "type": "uint256"
        }
      ],
      "name": "SessionCreated",
      "type": "event"
    },
    {
      "inputs": [
        {
          "internalType": "uint256",
          "name": "questionId",
          "type": "uint256"
        },
        {
          "internalType": "externalEuint128",
          "name": "encryptedAnswer",
          "type": "bytes32"
        },
        {
          "internalType": "bytes",
          "name": "inputProof",
          "type": "bytes"
        }
      ],
      "name": "answerQuestion",
      "outputs": [],
      "stateMutability": "nonpayable",
      "type": "function"
    },
    {
      "inputs": [
        {
          "internalType": "uint256",
          "name": "sessionId",
          "type": "uint256"
        }
      ],
      "name": "closeSession",
      "outputs": [],
      "stateMutability": "nonpayable",
      "type": "function"
    },
    {
      "inputs": [
        {
          "internalType": "string",
          "name": "topic",
          "type": "string"
        },
        {
          "internalType": "string",
          "name": "description",
          "type": "string"
        },
        {
          "internalType": "uint256",
          "name": "duration",
          "type": "uint256"
        }
      ],
      "name": "createSession",
      "outputs": [
        {
          "internalType": "uint256",
          "name": "",
          "type": "uint256"
        }
      ],
      "stateMutability": "nonpayable",
      "type": "function"
    },
    {
      "inputs": [],
      "name": "getActiveSessionsCount",
      "outputs": [
        {
          "internalType": "uint256",
          "name": "",
          "type": "uint256"
        }
      ],
      "stateMutability": "view",
      "type": "function"
    },
    {
      "inputs": [
        {
          "internalType": "uint256",
          "name": "questionId",
          "type": "uint256"
        }
      ],
      "name": "getEncryptedAnswer",
      "outputs": [
        {
          "internalType": "euint128",
          "name": "",
          "type": "bytes32"
        }
      ],
      "stateMutability": "view",
      "type": "function"
    },
    {
      "inputs": [
        {
          "internalType": "uint256",
          "name": "questionId",
          "type": "uint256"
        }
      ],
      "name": "getEncryptedQuestion",
      "outputs": [
        {
          "internalType": "euint128",
          "name": "",
          "type": "bytes32"
        }
      ],
      "stateMutability": "view",
      "type": "function"
    },
    {
      "inputs": [
        {
          "internalType": "address",
          "name": "host",
          "type": "address"
        }
      ],
      "name": "getHostSessions",
      "outputs": [
        {
          "internalType": "uint256[]",
          "name": "",
          "type": "uint256[]"
        }
      ],
      "stateMutability": "view",
      "type": "function"
    },
    {
      "inputs": [
        {
          "internalType": "uint256",
          "name": "questionId",
          "type": "uint256"
        }
      ],
      "name": "getQuestion",
      "outputs": [
        {
          "components": [
            {
              "internalType": "uint256",
              "name": "id",
              "type": "uint256"
            },
            {
              "internalType": "uint256",
              "name": "sessionId",
              "type": "uint256"
            },
            {
              "internalType": "address",
              "name": "asker",
              "type": "address"
            },
            {
              "internalType": "uint256",
              "name": "timestamp",
              "type": "uint256"
            },
            {
              "internalType": "bool",
              "name": "isAnswered",
              "type": "bool"
            }
          ],
          "internalType": "struct PrivateQA.Question",
          "name": "",
          "type": "tuple"
        }
      ],
      "stateMutability": "view",
      "type": "function"
    },
    {
      "inputs": [
        {
          "internalType": "uint256",
          "name": "sessionId",
          "type": "uint256"
        }
      ],
      "name": "getSession",
      "outputs": [
        {
          "components": [
            {
              "internalType": "uint256",
              "name": "id",
              "type": "uint256"
            },
            {
              "internalType": "address",
              "name": "host",
              "type": "address"
            },
            {
              "internalType": "string",
              "name": "topic",
              "type": "string"
            },
            {
              "internalType": "string",
              "name": "description",
              "type": "string"
            },
            {
              "internalType": "uint256",
              "name": "createdAt",
              "type": "uint256"
            },
            {
              "internalType": "uint256",
              "name": "expiresAt",
              "type": "uint256"
            },
            {
              "internalType": "bool",
              "name": "isActive",
              "type": "bool"
            },
            {
              "internalType": "uint256",
              "name": "questionCount",
              "type": "uint256"
            },
            {
              "internalType": "uint256",
              "name": "answeredCount",
              "type": "uint256"
            }
          ],
          "internalType": "struct PrivateQA.Session",
          "name": "",
          "type": "tuple"
        }
      ],
      "stateMutability": "view",
      "type": "function"
    },
    {
      "inputs": [
        {
          "internalType": "uint256",
          "name": "sessionId",
          "type": "uint256"
        }
      ],
      "name": "getSessionQuestions",
      "outputs": [
        {
          "internalType": "uint256[]",
          "name": "",
          "type": "uint256[]"
        }
      ],
      "stateMutability": "view",
      "type": "function"
    },
    {
      "inputs": [
        {
          "internalType": "address",
          "name": "user",
          "type": "address"
        }
      ],
      "name": "getUserQuestions",
      "outputs": [
        {
          "internalType": "uint256[]",
          "name": "",
          "type": "uint256[]"
        }
      ],
      "stateMutability": "view",
      "type": "function"
    },
    {
      "inputs": [
        {
          "internalType": "address",
          "name": "",
          "type": "address"
        },
        {
          "internalType": "uint256",
          "name": "",
          "type": "uint256"
        }
      ],
      "name": "hostSessions",
      "outputs": [
        {
          "internalType": "uint256",
          "name": "",
          "type": "uint256"
        }
      ],
      "stateMutability": "view",
      "type": "function"
    },
    {
      "inputs": [
        {
          "internalType": "uint256",
          "name": "sessionId",
          "type": "uint256"
        }
      ],
      "name": "isSessionExpired",
      "outputs": [
        {
          "internalType": "bool",
          "name": "",
          "type": "bool"
        }
      ],
      "stateMutability": "view",
      "type": "function"
    },
    {
      "inputs": [],
      "name": "protocolId",
      "outputs": [
        {
          "internalType": "uint256",
          "name": "",
          "type": "uint256"
        }
      ],
      "stateMutability": "pure",
      "type": "function"
    },
    {
      "inputs": [],
      "name": "questionCount",
      "outputs": [
        {
          "internalType": "uint256",
          "name": "",
          "type": "uint256"
        }
      ],
      "stateMutability": "view",
      "type": "function"
    },
    {
      "inputs": [
        {
          "internalType": "uint256",
          "name": "",
          "type": "uint256"
        }
      ],
      "name": "questions",
      "outputs": [
        {
          "internalType": "uint256",
          "name": "id",
          "type": "uint256"
        },
        {
          "internalType": "uint256",
          "name": "sessionId",
          "type": "uint256"
        },
        {
          "internalType": "address",
          "name": "asker",
          "type": "address"
        },
        {
          "internalType": "uint256",
          "name": "timestamp",
          "type": "uint256"
        },
        {
          "internalType": "bool",
          "name": "isAnswered",
          "type": "bool"
        }
      ],
      "stateMutability": "view",
      "type": "function"
    },
    {
      "inputs": [
        {
          "internalType": "uint256",
          "name": "questionId",
          "type": "uint256"
        }
      ],
      "name": "requestAnswerAccess",
      "outputs": [],
      "stateMutability": "nonpayable",
      "type": "function"
    },
    {
      "inputs": [
        {
          "internalType": "uint256",
          "name": "questionId",
          "type": "uint256"
        }
      ],
      "name": "requestQuestionAccess",
      "outputs": [],
      "stateMutability": "nonpayable",
      "type": "function"
    },
    {
      "inputs": [],
      "name": "sessionCount",
      "outputs": [
        {
          "internalType": "uint256",
          "name": "",
          "type": "uint256"
        }
      ],
      "stateMutability": "view",
      "type": "function"
    },
    {
      "inputs": [
        {
          "internalType": "uint256",
          "name": "",
          "type": "uint256"
        },
        {
          "internalType": "uint256",
          "name": "",
          "type": "uint256"
        }
      ],
      "name": "sessionQuestions",
      "outputs": [
        {
          "internalType": "uint256",
          "name": "",
          "type": "uint256"
        }
      ],
      "stateMutability": "view",
      "type": "function"
    },
    {
      "inputs": [
        {
          "internalType": "uint256",
          "name": "",
          "type": "uint256"
        }
      ],
      "name": "sessions",
      "outputs": [
        {
          "internalType": "uint256",
          "name": "id",
          "type": "uint256"
        },
        {
          "internalType": "address",
          "name": "host",
          "type": "address"
        },
        {
          "internalType": "string",
          "name": "topic",
          "type": "string"
        },
        {
          "internalType": "string",
          "name": "description",
          "type": "string"
        },
        {
          "internalType": "uint256",
          "name": "createdAt",
          "type": "uint256"
        },
        {
          "internalType": "uint256",
          "name": "expiresAt",
          "type": "uint256"
        },
        {
          "internalType": "bool",
          "name": "isActive",
          "type": "bool"
        },
        {
          "internalType": "uint256",
          "name": "questionCount",
          "type": "uint256"
        },
        {
          "internalType": "uint256",
          "name": "answeredCount",
          "type": "uint256"
        }
      ],
      "stateMutability": "view",
      "type": "function"
    },
    {
      "inputs": [
        {
          "internalType": "uint256",
          "name": "sessionId",
          "type": "uint256"
        },
        {
          "internalType": "externalEuint128",
          "name": "encryptedQuestion",
          "type": "bytes32"
        },
        {
          "internalType": "bytes",
          "name": "inputProof",
          "type": "bytes"
        }
      ],
      "name": "submitQuestion",
      "outputs": [
        {
          "internalType": "uint256",
          "name": "",
          "type": "uint256"
        }
      ],
      "stateMutability": "nonpayable",
      "type": "function"
    },
    {
      "inputs": [
        {
          "internalType": "address",
          "name": "",
          "type": "address"
        },
        {
          "internalType": "uint256",
          "name": "",
          "type": "uint256"
        }
      ],
      "name": "userQuestions",
      "outputs": [
        {
          "internalType": "uint256",
          "name": "",
          "type": "uint256"
        }
      ],
      "stateMutability": "view",
      "type": "function"
    }
  ],
  "bytecode": "0x608060405234610155576000606061001561015a565b828152826020820152826040820152015261002e61015a565b606073687820221192c5b662b25367f70076a37bc79b6c9182815273848b0066793bcc60346da1f49049357399b8d59580602083015273a02cda4ca3a71d7c46997716f4283aa851c2881291826040820152731364cbbf2cdf5032c47d8226a6f6fbd2afcdacac938491015260018060a01b0319937f9e7b61f58c47dc699ac88507c4f5bb9f121c03808c5676a8078fe583e464970090858254161790557f9e7b61f58c47dc699ac88507c4f5bb9f121c03808c5676a8078fe583e464970190848254161790557f9e7b61f58c47dc699ac88507c4f5bb9f121c03808c5676a8078fe583e464970290838254161790557f9e7b61f58c47dc699ac88507c4f5bb9f121c03808c5676a8078fe583e4649703918254161790556040516119f890816101908239f35b600080fd5b60405190608082016001600160401b0381118382101761017957604052565b634e487b7160e01b600052604160045260246000fdfe608080604052600436101561001357600080fd5b60003560e01c90816301c2a6fe1461132357508063119131e1146112d35780631468aa2c146112b55780632f068cfa1461126b57806331b1b9781461120757806338be4245146111ce578063402ff0db1461104957806343f2c82f14610fbf5780634a9a095d14610f3f57806373cd833614610f2157806373fceeda14610e9657806383c4b7a314610dd85780638943aa0514610d575780639e05bf5414610c04578063a24d220314610735578063a3bfdf4714610647578063bbd2dea7146105ef578063da1f12ab146105d2578063db88176f146104f6578063e1506c0214610477578063e960b525146103ec578063e9774b47146101ac5763fe27e89c1461011c57600080fd5b346101a75760203660031901126101a7576004358015158061019b575b610142906116a5565b80600052600160205261016660018060a01b036002604060002001541633146116e7565b80600052600160205261018360ff60046040600020015416611728565b60005260036020526020604060002054604051908152f35b50600854811115610139565b600080fd5b346101a7576101ba366115a9565b909291821515806103e0575b6101cf90611660565b826000526020936000855260ff60066040600020015416156103a657836000526000855260056040600020015442101561036f576102ec9161022461022a9260089561021b87546117b3565b875536916115fb565b906117fc565b82546000526002855280604060002055610244308261193b565b600084815280865260409020600101546001600160a01b03916102699183169061193b565b600483546040519261027a846114b2565b818452878401908782526040850190338252606086019242845260808701946000865260005260018b52604060002096518755516001870155600286019151166bffffffffffffffffffffffff60a01b82541617905551600384015551151591019060ff801983541691151516179055565b816000526004835261030460406000208254906117c2565b336000526006835261031c60406000208254906117c2565b8160005260008352600760406000200161033681546117b3565b9055549060405190428252827f544c51ac0319a4483818ca7039c26f69721f1692e37074fe20a290ae00a376d9853394a4604051908152f35b60405162461bcd60e51b815260048101869052600f60248201526e14d95cdcda5bdb88195e1c1a5c9959608a1b6044820152606490fd5b60405162461bcd60e51b815260048101869052601260248201527153657373696f6e206e6f742061637469766560701b6044820152606490fd5b506007548311156101c6565b346101a7576020806003193601126101a7576001600160a01b0361040e61139b565b1660005260056020526040600020906040519081602084549182815201936000526020600020916000905b8282106104605761045c85610450818903826114e2565b604051918291826113b1565b0390f35b835486529485019460019384019390910190610439565b346101a75760203660031901126101a757600435801515806104ea575b61049d906116a5565b80600052600160205260016040600020015460005260006020526104d260018060a01b03600160406000200154163314611774565b60005260026020526020604060002054604051908152f35b50600854811115610494565b346101a75760203660031901126101a7576004356000608060405161051a816114b2565b8281528260208201528260408201528260608201520152801515806105c6575b610543906116a5565b600052600160205260a0604060002060405161055e816114b2565b815491828252600181015460208301908152600180861b0390816002840154169060408501918252608060ff60046003870154966060890197885201541695019415158552604051958652516020860152511660408401525160608301525115156080820152f35b5060085481111561053a565b346101a75760003660031901126101a75760206040516127118152f35b346101a75760403660031901126101a75761060861139b565b6001600160a01b03166000908152600560205260409020805460243591908210156101a757602091610639916113ed565b90546040519160031b1c8152f35b346101a75760203660031901126101a75760043580151580610729575b61066d90611660565b80600052600060205261069160018060a01b03600160406000200154163314611774565b80600052600060205260ff60066040600020015416156106eb57806000526000602052600660406000200160ff1981541690557f737ea773789756155ce4ec81b73f88f21c918501c8bbb06721a6c6c46beb11c2600080a2005b60405162461bcd60e51b815260206004820152601660248201527514d95cdcda5bdb88185b1c9958591e4818db1bdcd95960521b6044820152606490fd5b50600754811115610664565b346101a75760603660031901126101a75760043567ffffffffffffffff81116101a757610766903690600401611642565b60243567ffffffffffffffff81116101a757610786903690600401611642565b604435825115610bc7578015610b82576107a16007546117b3565b806007558142014211610b6c57604051926107bb84611495565b818452336020850152846040850152606084015242608084015281420160a0840152600160c0840152600060e084015260006101008401526000526000602052604060002092825184556001840160018060a01b036020850151166bffffffffffffffffffffffff60a01b825416179055604083015180519067ffffffffffffffff8211610a86578190610852600288015461145b565b601f8111610b19575b50602090601f8311600114610aa757600092610a9c575b50508160011b916000199060031b1c19161760028501555b606083015193845167ffffffffffffffff8111610a86576108ae600383015461145b565b95601f8711610a3f575b602096508690601f83116001146109aa579582600893610100937faca18f9e4fe63a56a1135f166e5be85011c442d3d7010f57f96e87f47e6258029960009261099f575b50508160011b916000199060031b1c19161760038501555b6080810151600485015560a0810151600585015561094760c08201511515600686019060ff801983541691151516179055565b60e081015160078501550151910155336000526005845261096f6040600020600754906117c2565b60075492839161098a6040519160408352604083019061141b565b934201868201528033940390a3604051908152f35b015190508a806108fc565b9060038401600052876000209160005b601f1985168110610a28575083610100937faca18f9e4fe63a56a1135f166e5be85011c442d3d7010f57f96e87f47e6258029993600193600897601f19811610610a0f575b505050811b016003850155610914565b015160001960f88460031b161c191690558a80806109ff565b9192896001819286850151815501940192016109ba565b600383016000526020600020601f830160051c810160208410610a7f575b601f890160051c82018110610a735750506108b8565b60008155600101610a5d565b5080610a5d565b634e487b7160e01b600052604160045260246000fd5b015190508680610872565b9250600287016000526020600020906000935b601f1984168510610afe576001945083601f19811610610ae5575b505050811b01600285015561088a565b015160001960f88460031b161c19169055868080610ad5565b81810151835560209485019460019093019290910190610aba565b909150600287016000526020600020601f840160051c810160208510610b65575b90849392915b601f830160051c82018110610b5657505061085b565b60008155859450600101610b40565b5080610b3a565b634e487b7160e01b600052601160045260246000fd5b60405162461bcd60e51b815260206004820152601960248201527f4475726174696f6e206d75737420626520706f736974697665000000000000006044820152606490fd5b60405162461bcd60e51b8152602060048201526015602482015274546f7069632063616e6e6f7420626520656d70747960581b6044820152606490fd5b346101a757610c12366115a9565b83929193151580610d4b575b610c27906116a5565b82600052600190602092828452826040600020015495866000526000855260018060a01b0392610c61848660406000200154163314611774565b8660005284865260ff60046040600020015416610d1357610cbd92610224600097969593610c909336916115fb565b9086865260038552816040872055610ca8308361193b565b8686528385526002604087200154169061193b565b838352808252600460408420019060ff19825416179055838252526008604060002001610cea81546117b3565b90557fc20b398467992236b8620840c359274de29a5f112c4705e447a7b86bb483cc70600080a3005b60405162461bcd60e51b815260048101879052601060248201526f105b1c9958591e48185b9cddd95c995960821b6044820152606490fd5b50600854831115610c1e565b346101a75760003660031901126101a75760006001600754905b81811115610d8457602083604051908152f35b806000526000602052604060002060ff6006820154169081610dca575b50610db5575b610db0906117b3565b610d71565b91610dc2610db0916117b3565b929050610da7565b600591500154421084610da1565b346101a75760203660031901126101a7576004356000526000602052604060002080549060018060a01b0360018201541690610e1660028201611504565b610e2260038301611504565b916004810154926005820154610e7560ff60068501541692610e6760086007870154960154966040519a8b9a610120918c5260208c01528060408c01528a019061141b565b9088820360608a015261141b565b94608087015260a0860152151560c085015260e08401526101008301520390f35b346101a7576020806003193601126101a75760043580151580610f15575b610ebd90611660565b60005260046020526040600020906040519081602084549182815201936000526020600020916000905b828210610efe5761045c85610450818903826114e2565b835486529485019460019384019390910190610ee7565b50600754811115610eb4565b346101a75760003660031901126101a7576020600754604051908152f35b346101a75760203660031901126101a75760043580151580610fb3575b610f65906116a5565b8060005260016020526001604060002001546000526000602052610f9a60018060a01b03600160406000200154163314611774565b6000526002602052610fb13360406000205461193b565b005b50600854811115610f5c565b346101a75760203660031901126101a7576004358015158061103d575b610fe5906116a5565b80600052600160205261100960018060a01b036002604060002001541633146116e7565b80600052600160205261102660ff60046040600020015416611728565b6000526003602052610fb13360406000205461193b565b50600854811115610fdc565b346101a7576020806003193601126101a7576040519060043561106b83611495565b600083526000828401526060604084015260608084015260006080840152600060a0840152600060c0840152600060e0840152600061010080940152801515806111c2575b6110b990611660565b600052600081526040600020604051926110d284611495565b8154845260018201546001600160a01b039081168486019081529091856110fb60028601611504565b946040820195865261110f60038201611504565b946060830195865261119f6004830154976080850198895260058401549260a08601938452600860ff6006870154169560c08801961515875260e060078201549801978852015497878d019889528b6040519d8e9d8e5251908d0152511660408b0152519661118c610120988960608d01526101408c019061141b565b90518a8203601f190160808c015261141b565b965160a08901525160c088015251151560e0870152519085015251908301520390f35b506007548111156110b0565b346101a75760403660031901126101a7576024356004356000526004602052604060002080548210156101a757602091610639916113ed565b346101a75760203660031901126101a757600435600052600160205260a06040600020805490600181015490600180851b0360028201541660ff60046003840154930154169260405194855260208501526040840152606083015215156080820152f35b346101a75760403660031901126101a75761128461139b565b6001600160a01b03166000908152600660205260409020805460243591908210156101a757602091610639916113ed565b346101a75760003660031901126101a7576020600854604051908152f35b346101a75760203660031901126101a75760043580151580611317575b6112f990611660565b60005260006020526020600560406000200154421015604051908152f35b506007548111156112f0565b346101a75760209060206003193601126101a7576001600160a01b0361134761139b565b166000526006602052604060002091825480835260208301936000526020600020916000905b8282106113845761045c85610450818903826114e2565b83548652948501946001938401939091019061136d565b600435906001600160a01b03821682036101a757565b602090602060408183019282815285518094520193019160005b8281106113d9575050505090565b8351855293810193928101926001016113cb565b80548210156114055760005260206000200190600090565b634e487b7160e01b600052603260045260246000fd5b919082519283825260005b848110611447575050826000602080949584010152601f8019910116010190565b602081830181015184830182015201611426565b90600182811c9216801561148b575b602083101461147557565b634e487b7160e01b600052602260045260246000fd5b91607f169161146a565b610120810190811067ffffffffffffffff821117610a8657604052565b60a0810190811067ffffffffffffffff821117610a8657604052565b67ffffffffffffffff8111610a8657604052565b90601f8019910116810190811067ffffffffffffffff821117610a8657604052565b906040519182600082546115178161145b565b908184526020946001916001811690816000146115875750600114611548575b505050611546925003836114e2565b565b600090815285812095935091905b81831061156f5750506115469350820101388080611537565b85548884018501529485019487945091830191611556565b9250505061154694925060ff191682840152151560051b820101388080611537565b9060606003198301126101a757600435916024359160443567ffffffffffffffff928382116101a757806023830112156101a75781600401359384116101a757602484830101116101a7576024019190565b92919267ffffffffffffffff8211610a865760405191611625601f8201601f1916602001846114e2565b8294818452818301116101a7578281602093846000960137010152565b9080601f830112156101a75781602061165d933591016115fb565b90565b1561166757565b60405162461bcd60e51b815260206004820152601660248201527514d95cdcda5bdb88191bd95cc81b9bdd08195e1a5cdd60521b6044820152606490fd5b156116ac57565b60405162461bcd60e51b8152602060048201526013602482015272125b9d985b1a59081c5d595cdd1a5bdb881251606a1b6044820152606490fd5b156116ee57565b60405162461bcd60e51b81526020600482015260126024820152712737ba1038bab2b9ba34b7b71030b9b5b2b960711b6044820152606490fd5b1561172f57565b60405162461bcd60e51b815260206004820152601960248201527f5175657374696f6e206e6f7420616e73776572656420796574000000000000006044820152606490fd5b1561177b57565b60405162461bcd60e51b815260206004820152601060248201526f139bdd081cd95cdcda5bdb881a1bdcdd60821b6044820152606490fd5b6000198114610b6c5760010190565b805468010000000000000000811015610a86576117e4916001820181556113ed565b819291549060031b91821b91600019901b1916179055565b9061185e91602060018060a01b0391827f9e7b61f58c47dc699ac88507c4f5bb9f121c03808c5676a8078fe583e4649701541660405180968196829463196d0b9b60e01b8452600484015233602484015260806044840152608483019061141b565b60066064830152600096879103925af19283156119305782936118f8575b507f9e7b61f58c47dc699ac88507c4f5bb9f121c03808c5676a8078fe583e4649700541690813b156118f557604051630f8e573b60e21b8152600481018490523360248201529181908390604490829084905af19081156118e957506118e0575090565b61165d906114ce565b604051903d90823e3d90fd5b80fd5b9092506020813d602011611928575b81611914602093836114e2565b810103126119245751913861187c565b5080fd5b3d9150611907565b6040513d84823e3d90fd5b7f9e7b61f58c47dc699ac88507c4f5bb9f121c03808c5676a8078fe583e4649700546001600160a01b031691823b156101a757604051635ca4b5b160e11b815260048101929092526001600160a01b03166024820152906000908290604490829084905af180156119b6576119ad5750565b611546906114ce565b6040513d6000823e3d90fdfea26469706673582212208b734b6cf43fdaa4fc5fecee48171c9fcc8d3b7f1bf3af9d0f7c18132226bddb64736f6c63430008180033",
  "linkReferences": {},
  "deployedLinkReferences": {}
}